{
  "_format": "hh-sol-artifact-1",
  "contractName": "NFT_USE_PAYMENTS",
  "sourceName": "contracts/NFT_USE_PAYMENTS.sol",
  "abi": [
    {
      "inputs": [
        {
          "internalType": "address",
          "name": "_payments",
          "type": "address"
        }
      ],
      "stateMutability": "nonpayable",
      "type": "constructor"
    },
    {
      "anonymous": false,
      "inputs": [
        {
          "indexed": true,
          "internalType": "address",
          "name": "owner",
          "type": "address"
        },
        {
          "indexed": true,
          "internalType": "address",
          "name": "approved",
          "type": "address"
        },
        {
          "indexed": true,
          "internalType": "uint256",
          "name": "tokenId",
          "type": "uint256"
        }
      ],
      "name": "Approval",
      "type": "event"
    },
    {
      "anonymous": false,
      "inputs": [
        {
          "indexed": true,
          "internalType": "address",
          "name": "owner",
          "type": "address"
        },
        {
          "indexed": true,
          "internalType": "address",
          "name": "operator",
          "type": "address"
        },
        {
          "indexed": false,
          "internalType": "bool",
          "name": "approved",
          "type": "bool"
        }
      ],
      "name": "ApprovalForAll",
      "type": "event"
    },
    {
      "anonymous": false,
      "inputs": [
        {
          "indexed": true,
          "internalType": "address",
          "name": "previousOwner",
          "type": "address"
        },
        {
          "indexed": true,
          "internalType": "address",
          "name": "newOwner",
          "type": "address"
        }
      ],
      "name": "OwnershipTransferred",
      "type": "event"
    },
    {
      "anonymous": false,
      "inputs": [
        {
          "indexed": true,
          "internalType": "address",
          "name": "from",
          "type": "address"
        },
        {
          "indexed": true,
          "internalType": "address",
          "name": "to",
          "type": "address"
        },
        {
          "indexed": true,
          "internalType": "uint256",
          "name": "tokenId",
          "type": "uint256"
        }
      ],
      "name": "Transfer",
      "type": "event"
    },
    {
      "inputs": [
        {
          "internalType": "address",
          "name": "to",
          "type": "address"
        },
        {
          "internalType": "uint256",
          "name": "tokenId",
          "type": "uint256"
        }
      ],
      "name": "approve",
      "outputs": [],
      "stateMutability": "nonpayable",
      "type": "function"
    },
    {
      "inputs": [
        {
          "internalType": "address",
          "name": "owner",
          "type": "address"
        }
      ],
      "name": "balanceOf",
      "outputs": [
        {
          "internalType": "uint256",
          "name": "",
          "type": "uint256"
        }
      ],
      "stateMutability": "view",
      "type": "function"
    },
    {
      "inputs": [],
      "name": "count",
      "outputs": [
        {
          "internalType": "uint256",
          "name": "",
          "type": "uint256"
        }
      ],
      "stateMutability": "view",
      "type": "function"
    },
    {
      "inputs": [
        {
          "internalType": "uint256",
          "name": "tokenId",
          "type": "uint256"
        }
      ],
      "name": "getApproved",
      "outputs": [
        {
          "internalType": "address",
          "name": "",
          "type": "address"
        }
      ],
      "stateMutability": "view",
      "type": "function"
    },
    {
      "inputs": [
        {
          "internalType": "address",
          "name": "owner",
          "type": "address"
        },
        {
          "internalType": "address",
          "name": "operator",
          "type": "address"
        }
      ],
      "name": "isApprovedForAll",
      "outputs": [
        {
          "internalType": "bool",
          "name": "",
          "type": "bool"
        }
      ],
      "stateMutability": "view",
      "type": "function"
    },
    {
      "inputs": [
        {
          "internalType": "string",
          "name": "uri",
          "type": "string"
        }
      ],
      "name": "isContentOwned",
      "outputs": [
        {
          "internalType": "bool",
          "name": "",
          "type": "bool"
        }
      ],
      "stateMutability": "view",
      "type": "function"
    },
    {
      "inputs": [],
      "name": "name",
      "outputs": [
        {
          "internalType": "string",
          "name": "",
          "type": "string"
        }
      ],
      "stateMutability": "view",
      "type": "function"
    },
    {
      "inputs": [],
      "name": "owner",
      "outputs": [
        {
          "internalType": "address",
          "name": "",
          "type": "address"
        }
      ],
      "stateMutability": "view",
      "type": "function"
    },
    {
      "inputs": [
        {
          "internalType": "uint256",
          "name": "tokenId",
          "type": "uint256"
        }
      ],
      "name": "ownerOf",
      "outputs": [
        {
          "internalType": "address",
          "name": "",
          "type": "address"
        }
      ],
      "stateMutability": "view",
      "type": "function"
    },
    {
      "inputs": [
        {
          "internalType": "address",
          "name": "recipient",
          "type": "address"
        },
        {
          "internalType": "string",
          "name": "metadataURI",
          "type": "string"
        }
      ],
      "name": "payToMint",
      "outputs": [
        {
          "internalType": "uint256",
          "name": "",
          "type": "uint256"
        }
      ],
      "stateMutability": "payable",
      "type": "function"
    },
    {
      "inputs": [],
      "name": "payments",
      "outputs": [
        {
          "internalType": "address payable",
          "name": "",
          "type": "address"
        }
      ],
      "stateMutability": "view",
      "type": "function"
    },
    {
      "inputs": [],
      "name": "renounceOwnership",
      "outputs": [],
      "stateMutability": "nonpayable",
      "type": "function"
    },
    {
      "inputs": [
        {
          "internalType": "address",
          "name": "to",
          "type": "address"
        },
        {
          "internalType": "string",
          "name": "uri",
          "type": "string"
        }
      ],
      "name": "safeMint",
      "outputs": [],
      "stateMutability": "nonpayable",
      "type": "function"
    },
    {
      "inputs": [
        {
          "internalType": "address",
          "name": "from",
          "type": "address"
        },
        {
          "internalType": "address",
          "name": "to",
          "type": "address"
        },
        {
          "internalType": "uint256",
          "name": "tokenId",
          "type": "uint256"
        }
      ],
      "name": "safeTransferFrom",
      "outputs": [],
      "stateMutability": "nonpayable",
      "type": "function"
    },
    {
      "inputs": [
        {
          "internalType": "address",
          "name": "from",
          "type": "address"
        },
        {
          "internalType": "address",
          "name": "to",
          "type": "address"
        },
        {
          "internalType": "uint256",
          "name": "tokenId",
          "type": "uint256"
        },
        {
          "internalType": "bytes",
          "name": "_data",
          "type": "bytes"
        }
      ],
      "name": "safeTransferFrom",
      "outputs": [],
      "stateMutability": "nonpayable",
      "type": "function"
    },
    {
      "inputs": [
        {
          "internalType": "address",
          "name": "operator",
          "type": "address"
        },
        {
          "internalType": "bool",
          "name": "approved",
          "type": "bool"
        }
      ],
      "name": "setApprovalForAll",
      "outputs": [],
      "stateMutability": "nonpayable",
      "type": "function"
    },
    {
      "inputs": [
        {
          "internalType": "bytes4",
          "name": "interfaceId",
          "type": "bytes4"
        }
      ],
      "name": "supportsInterface",
      "outputs": [
        {
          "internalType": "bool",
          "name": "",
          "type": "bool"
        }
      ],
      "stateMutability": "view",
      "type": "function"
    },
    {
      "inputs": [],
      "name": "symbol",
      "outputs": [
        {
          "internalType": "string",
          "name": "",
          "type": "string"
        }
      ],
      "stateMutability": "view",
      "type": "function"
    },
    {
      "inputs": [
        {
          "internalType": "uint256",
          "name": "tokenId",
          "type": "uint256"
        }
      ],
      "name": "tokenURI",
      "outputs": [
        {
          "internalType": "string",
          "name": "",
          "type": "string"
        }
      ],
      "stateMutability": "view",
      "type": "function"
    },
    {
      "inputs": [
        {
          "internalType": "address",
          "name": "from",
          "type": "address"
        },
        {
          "internalType": "address",
          "name": "to",
          "type": "address"
        },
        {
          "internalType": "uint256",
          "name": "tokenId",
          "type": "uint256"
        }
      ],
      "name": "transferFrom",
      "outputs": [],
      "stateMutability": "nonpayable",
      "type": "function"
    },
    {
      "inputs": [
        {
          "internalType": "address",
          "name": "newOwner",
          "type": "address"
        }
      ],
      "name": "transferOwnership",
      "outputs": [],
      "stateMutability": "nonpayable",
      "type": "function"
    },
    {
      "inputs": [],
      "name": "withdraw",
      "outputs": [],
      "stateMutability": "payable",
      "type": "function"
    }
  ],
  "bytecode": "0x60806040523480156200001157600080fd5b5060405162001f6138038062001f618339810160408190526200003491620001d0565b60408051808201825260058152642a37b5b2b760d91b602080830191825283518085019094526002845261151560f21b9084015281519192916200007b916000916200012a565b508051620000919060019060208401906200012a565b505050620000ae620000a8620000d460201b60201c565b620000d8565b600a80546001600160a01b0319166001600160a01b03929092169190911790556200023d565b3390565b600780546001600160a01b038381166001600160a01b0319831681179093556040519116919082907f8be0079c531659141344cd1fd0a4f28419497f9722a3daafe3b4186f6b6457e090600090a35050565b828054620001389062000200565b90600052602060002090601f0160209004810192826200015c5760008555620001a7565b82601f106200017757805160ff1916838001178555620001a7565b82800160010185558215620001a7579182015b82811115620001a75782518255916020019190600101906200018a565b50620001b5929150620001b9565b5090565b5b80821115620001b55760008155600101620001ba565b600060208284031215620001e2578081fd5b81516001600160a01b0381168114620001f9578182fd5b9392505050565b600181811c908216806200021557607f821691505b602082108114156200023757634e487b7160e01b600052602260045260246000fd5b50919050565b611d14806200024d6000396000f3fe6080604052600436106101355760003560e01c8063715018a6116100ab578063a6d23e101161006f578063a6d23e1014610331578063b88d4fde14610351578063c87b56dd14610371578063d204c45e14610391578063e985e9c5146103b1578063f2fde38b146103fa57600080fd5b8063715018a6146102a95780638da5cb5b146102be57806395d89b41146102dc5780639f1cabc6146102f1578063a22cb4651461031157600080fd5b806323b872dd116100fd57806323b872dd1461020e5780633ccfd60b1461022e57806342842e0e14610236578063615fd9e2146102565780636352211e1461026957806370a082311461028957600080fd5b806301ffc9a71461013a57806306661abd1461016f57806306fdde0314610192578063081812fc146101b4578063095ea7b3146101ec575b600080fd5b34801561014657600080fd5b5061015a61015536600461198b565b61041a565b60405190151581526020015b60405180910390f35b34801561017b57600080fd5b5061018461046c565b604051908152602001610166565b34801561019e57600080fd5b506101a761047c565b6040516101669190611ac2565b3480156101c057600080fd5b506101d46101cf3660046119f6565b61050e565b6040516001600160a01b039091168152602001610166565b3480156101f857600080fd5b5061020c610207366004611962565b61059b565b005b34801561021a57600080fd5b5061020c610229366004611828565b6106b1565b61020c6106e2565b34801561024257600080fd5b5061020c610251366004611828565b61076f565b610184610264366004611916565b61078a565b34801561027557600080fd5b506101d46102843660046119f6565b6108a9565b34801561029557600080fd5b506101846102a43660046117dc565b610920565b3480156102b557600080fd5b5061020c6109a7565b3480156102ca57600080fd5b506007546001600160a01b03166101d4565b3480156102e857600080fd5b506101a76109dd565b3480156102fd57600080fd5b5061015a61030c3660046119c3565b6109ec565b34801561031d57600080fd5b5061020c61032c3660046118dc565b610a1a565b34801561033d57600080fd5b50600a546101d4906001600160a01b031681565b34801561035d57600080fd5b5061020c61036c366004611863565b610a29565b34801561037d57600080fd5b506101a761038c3660046119f6565b610a61565b34801561039d57600080fd5b5061020c6103ac366004611916565b610a6c565b3480156103bd57600080fd5b5061015a6103cc3660046117f6565b6001600160a01b03918216600090815260056020908152604080832093909416825291909152205460ff1690565b34801561040657600080fd5b5061020c6104153660046117dc565b610aff565b60006001600160e01b031982166380ac58cd60e01b148061044b57506001600160e01b03198216635b5e139f60e01b145b8061046657506301ffc9a760e01b6001600160e01b03198316145b92915050565b600061047760085490565b905090565b60606000805461048b90611c1c565b80601f01602080910402602001604051908101604052809291908181526020018280546104b790611c1c565b80156105045780601f106104d957610100808354040283529160200191610504565b820191906000526020600020905b8154815290600101906020018083116104e757829003601f168201915b5050505050905090565b600061051982610b97565b61057f5760405162461bcd60e51b815260206004820152602c60248201527f4552433732313a20617070726f76656420717565727920666f72206e6f6e657860448201526b34b9ba32b73a103a37b5b2b760a11b60648201526084015b60405180910390fd5b506000908152600460205260409020546001600160a01b031690565b60006105a6826108a9565b9050806001600160a01b0316836001600160a01b031614156106145760405162461bcd60e51b815260206004820152602160248201527f4552433732313a20617070726f76616c20746f2063757272656e74206f776e656044820152603960f91b6064820152608401610576565b336001600160a01b0382161480610630575061063081336103cc565b6106a25760405162461bcd60e51b815260206004820152603860248201527f4552433732313a20617070726f76652063616c6c6572206973206e6f74206f7760448201527f6e6572206e6f7220617070726f76656420666f7220616c6c00000000000000006064820152608401610576565b6106ac8383610bb4565b505050565b6106bb3382610c22565b6106d75760405162461bcd60e51b815260040161057690611b5c565b6106ac838383610d0c565b6007546001600160a01b0316331461070c5760405162461bcd60e51b815260040161057690611b27565b600a546040516000916001600160a01b03169047908381818185875af1925050503d8060008114610759576040519150601f19603f3d011682016040523d82523d6000602084013e61075e565b606091505b505090508061076c57600080fd5b50565b6106ac83838360405180602001604052806000815250610a29565b600060098260405161079c9190611a3a565b9081526040519081900360200190205460ff16600114156107f55760405162461bcd60e51b81526020600482015260136024820152724e465420616c7265616479206d696e7465642160681b6044820152606401610576565b66b1a2bc2ec5000034101561083e5760405162461bcd60e51b815260206004820152600f60248201526e4e65656420746f207061792075702160881b6044820152606401610576565b600061084960085490565b9050610859600880546001019055565b600160098460405161086b9190611a3a565b908152604051908190036020019020805460ff9290921660ff199092169190911790556108988482610ea8565b6108a28184610fdb565b9392505050565b6000818152600260205260408120546001600160a01b0316806104665760405162461bcd60e51b815260206004820152602960248201527f4552433732313a206f776e657220717565727920666f72206e6f6e657869737460448201526832b73a103a37b5b2b760b91b6064820152608401610576565b60006001600160a01b03821661098b5760405162461bcd60e51b815260206004820152602a60248201527f4552433732313a2062616c616e636520717565727920666f7220746865207a65604482015269726f206164647265737360b01b6064820152608401610576565b506001600160a01b031660009081526003602052604090205490565b6007546001600160a01b031633146109d15760405162461bcd60e51b815260040161057690611b27565b6109db6000611066565b565b60606001805461048b90611c1c565b60006009826040516109fe9190611a3a565b9081526040519081900360200190205460ff1660011492915050565b610a253383836110b8565b5050565b610a333383610c22565b610a4f5760405162461bcd60e51b815260040161057690611b5c565b610a5b84848484611187565b50505050565b6060610466826111ba565b6007546001600160a01b03163314610a965760405162461bcd60e51b815260040161057690611b27565b6000610aa160085490565b9050610ab1600880546001019055565b610abb8382611338565b610ac58183610fdb565b6001600983604051610ad79190611a3a565b908152604051908190036020019020805460ff9290921660ff19909216919091179055505050565b6007546001600160a01b03163314610b295760405162461bcd60e51b815260040161057690611b27565b6001600160a01b038116610b8e5760405162461bcd60e51b815260206004820152602660248201527f4f776e61626c653a206e6577206f776e657220697320746865207a65726f206160448201526564647265737360d01b6064820152608401610576565b61076c81611066565b6000908152600260205260409020546001600160a01b0316151590565b600081815260046020526040902080546001600160a01b0319166001600160a01b0384169081179091558190610be9826108a9565b6001600160a01b03167f8c5be1e5ebec7d5bd14f71427d1e84f3dd0314c0f7b2291e5b200ac8c7c3b92560405160405180910390a45050565b6000610c2d82610b97565b610c8e5760405162461bcd60e51b815260206004820152602c60248201527f4552433732313a206f70657261746f7220717565727920666f72206e6f6e657860448201526b34b9ba32b73a103a37b5b2b760a11b6064820152608401610576565b6000610c99836108a9565b9050806001600160a01b0316846001600160a01b03161480610cd45750836001600160a01b0316610cc98461050e565b6001600160a01b0316145b80610d0457506001600160a01b0380821660009081526005602090815260408083209388168352929052205460ff165b949350505050565b826001600160a01b0316610d1f826108a9565b6001600160a01b031614610d835760405162461bcd60e51b815260206004820152602560248201527f4552433732313a207472616e736665722066726f6d20696e636f72726563742060448201526437bbb732b960d91b6064820152608401610576565b6001600160a01b038216610de55760405162461bcd60e51b8152602060048201526024808201527f4552433732313a207472616e7366657220746f20746865207a65726f206164646044820152637265737360e01b6064820152608401610576565b610df0600082610bb4565b6001600160a01b0383166000908152600360205260408120805460019290610e19908490611bd9565b90915550506001600160a01b0382166000908152600360205260408120805460019290610e47908490611bad565b909155505060008181526002602052604080822080546001600160a01b0319166001600160a01b0386811691821790925591518493918716917fddf252ad1be2c89b69c2b068fc378daa952ba7f163c4a11628f55a4df523b3ef91a4505050565b6001600160a01b038216610efe5760405162461bcd60e51b815260206004820181905260248201527f4552433732313a206d696e7420746f20746865207a65726f20616464726573736044820152606401610576565b610f0781610b97565b15610f545760405162461bcd60e51b815260206004820152601c60248201527f4552433732313a20746f6b656e20616c7265616479206d696e746564000000006044820152606401610576565b6001600160a01b0382166000908152600360205260408120805460019290610f7d908490611bad565b909155505060008181526002602052604080822080546001600160a01b0319166001600160a01b03861690811790915590518392907fddf252ad1be2c89b69c2b068fc378daa952ba7f163c4a11628f55a4df523b3ef908290a45050565b610fe482610b97565b6110475760405162461bcd60e51b815260206004820152602e60248201527f45524337323155524953746f726167653a2055524920736574206f66206e6f6e60448201526d32bc34b9ba32b73a103a37b5b2b760911b6064820152608401610576565b600082815260066020908152604090912082516106ac92840190611692565b600780546001600160a01b038381166001600160a01b0319831681179093556040519116919082907f8be0079c531659141344cd1fd0a4f28419497f9722a3daafe3b4186f6b6457e090600090a35050565b816001600160a01b0316836001600160a01b0316141561111a5760405162461bcd60e51b815260206004820152601960248201527f4552433732313a20617070726f766520746f2063616c6c6572000000000000006044820152606401610576565b6001600160a01b03838116600081815260056020908152604080832094871680845294825291829020805460ff191686151590811790915591519182527f17307eab39ab6107e8899845ad3d59bd9653f200f220920489ca2b5937696c31910160405180910390a3505050565b611192848484610d0c565b61119e84848484611352565b610a5b5760405162461bcd60e51b815260040161057690611ad5565b60606111c582610b97565b61122b5760405162461bcd60e51b815260206004820152603160248201527f45524337323155524953746f726167653a2055524920717565727920666f72206044820152703737b732bc34b9ba32b73a103a37b5b2b760791b6064820152608401610576565b6000828152600660205260408120805461124490611c1c565b80601f016020809104026020016040519081016040528092919081815260200182805461127090611c1c565b80156112bd5780601f10611292576101008083540402835291602001916112bd565b820191906000526020600020905b8154815290600101906020018083116112a057829003601f168201915b5050505050905060006112ea604080518082019091526007815266697066733a2f2f60c81b602082015290565b90508051600014156112fd575092915050565b81511561132f578082604051602001611317929190611a56565b60405160208183030381529060405292505050919050565b610d048461145f565b610a25828260405180602001604052806000815250611545565b60006001600160a01b0384163b1561145457604051630a85bd0160e11b81526001600160a01b0385169063150b7a0290611396903390899088908890600401611a85565b602060405180830381600087803b1580156113b057600080fd5b505af19250505080156113e0575060408051601f3d908101601f191682019092526113dd918101906119a7565b60015b61143a573d80801561140e576040519150601f19603f3d011682016040523d82523d6000602084013e611413565b606091505b5080516114325760405162461bcd60e51b815260040161057690611ad5565b805181602001fd5b6001600160e01b031916630a85bd0160e11b149050610d04565b506001949350505050565b606061146a82610b97565b6114ce5760405162461bcd60e51b815260206004820152602f60248201527f4552433732314d657461646174613a2055524920717565727920666f72206e6f60448201526e3732bc34b9ba32b73a103a37b5b2b760891b6064820152608401610576565b60006114f4604080518082019091526007815266697066733a2f2f60c81b602082015290565b9050600081511161151457604051806020016040528060008152506108a2565b8061151e84611578565b60405160200161152f929190611a56565b6040516020818303038152906040529392505050565b61154f8383610ea8565b61155c6000848484611352565b6106ac5760405162461bcd60e51b815260040161057690611ad5565b60608161159c5750506040805180820190915260018152600360fc1b602082015290565b8160005b81156115c657806115b081611c57565b91506115bf9050600a83611bc5565b91506115a0565b60008167ffffffffffffffff8111156115ef57634e487b7160e01b600052604160045260246000fd5b6040519080825280601f01601f191660200182016040528015611619576020820181803683370190505b5090505b8415610d045761162e600183611bd9565b915061163b600a86611c72565b611646906030611bad565b60f81b81838151811061166957634e487b7160e01b600052603260045260246000fd5b60200101906001600160f81b031916908160001a90535061168b600a86611bc5565b945061161d565b82805461169e90611c1c565b90600052602060002090601f0160209004810192826116c05760008555611706565b82601f106116d957805160ff1916838001178555611706565b82800160010185558215611706579182015b828111156117065782518255916020019190600101906116eb565b50611712929150611716565b5090565b5b808211156117125760008155600101611717565b600067ffffffffffffffff8084111561174657611746611cb2565b604051601f8501601f19908116603f0116810190828211818310171561176e5761176e611cb2565b8160405280935085815286868601111561178757600080fd5b858560208301376000602087830101525050509392505050565b80356001600160a01b03811681146117b857600080fd5b919050565b600082601f8301126117cd578081fd5b6108a28383356020850161172b565b6000602082840312156117ed578081fd5b6108a2826117a1565b60008060408385031215611808578081fd5b611811836117a1565b915061181f602084016117a1565b90509250929050565b60008060006060848603121561183c578081fd5b611845846117a1565b9250611853602085016117a1565b9150604084013590509250925092565b60008060008060808587031215611878578081fd5b611881856117a1565b935061188f602086016117a1565b925060408501359150606085013567ffffffffffffffff8111156118b1578182fd5b8501601f810187136118c1578182fd5b6118d08782356020840161172b565b91505092959194509250565b600080604083850312156118ee578182fd5b6118f7836117a1565b91506020830135801515811461190b578182fd5b809150509250929050565b60008060408385031215611928578182fd5b611931836117a1565b9150602083013567ffffffffffffffff81111561194c578182fd5b611958858286016117bd565b9150509250929050565b60008060408385031215611974578182fd5b61197d836117a1565b946020939093013593505050565b60006020828403121561199c578081fd5b81356108a281611cc8565b6000602082840312156119b8578081fd5b81516108a281611cc8565b6000602082840312156119d4578081fd5b813567ffffffffffffffff8111156119ea578182fd5b610d04848285016117bd565b600060208284031215611a07578081fd5b5035919050565b60008151808452611a26816020860160208601611bf0565b601f01601f19169290920160200192915050565b60008251611a4c818460208701611bf0565b9190910192915050565b60008351611a68818460208801611bf0565b835190830190611a7c818360208801611bf0565b01949350505050565b6001600160a01b0385811682528416602082015260408101839052608060608201819052600090611ab890830184611a0e565b9695505050505050565b6020815260006108a26020830184611a0e565b60208082526032908201527f4552433732313a207472616e7366657220746f206e6f6e20455243373231526560408201527131b2b4bb32b91034b6b83632b6b2b73a32b960711b606082015260800190565b6020808252818101527f4f776e61626c653a2063616c6c6572206973206e6f7420746865206f776e6572604082015260600190565b60208082526031908201527f4552433732313a207472616e736665722063616c6c6572206973206e6f74206f6040820152701ddb995c881b9bdc88185c1c1c9bdd9959607a1b606082015260800190565b60008219821115611bc057611bc0611c86565b500190565b600082611bd457611bd4611c9c565b500490565b600082821015611beb57611beb611c86565b500390565b60005b83811015611c0b578181015183820152602001611bf3565b83811115610a5b5750506000910152565b600181811c90821680611c3057607f821691505b60208210811415611c5157634e487b7160e01b600052602260045260246000fd5b50919050565b6000600019821415611c6b57611c6b611c86565b5060010190565b600082611c8157611c81611c9c565b500690565b634e487b7160e01b600052601160045260246000fd5b634e487b7160e01b600052601260045260246000fd5b634e487b7160e01b600052604160045260246000fd5b6001600160e01b03198116811461076c57600080fdfea264697066735822122074248a1788e0d961df06228b53fd8a42a88cf59ed767c0c8ca37391910dd11a464736f6c63430008040033",
  "linkReferences": {},
  "deployedLinkReferences": {}
}