{
  "_format": "hh-sol-artifact-1",
  "contractName": "PAYMENTS",
  "sourceName": "contracts/PAYMENTS.sol",
  "abi": [
    {
      "inputs": [
        {
          "internalType": "address[]",
          "name": "_payees",
          "type": "address[]"
        },
        {
          "internalType": "uint256[]",
          "name": "_shares",
          "type": "uint256[]"
        }
      ],
      "stateMutability": "payable",
      "type": "constructor"
    },
    {
      "anonymous": false,
      "inputs": [
        {
          "indexed": true,
          "internalType": "contract IERC20",
          "name": "token",
          "type": "address"
        },
        {
          "indexed": false,
          "internalType": "address",
          "name": "to",
          "type": "address"
        },
        {
          "indexed": false,
          "internalType": "uint256",
          "name": "amount",
          "type": "uint256"
        }
      ],
      "name": "ERC20PaymentReleased",
      "type": "event"
    },
    {
      "anonymous": false,
      "inputs": [
        {
          "indexed": false,
          "internalType": "address",
          "name": "account",
          "type": "address"
        },
        {
          "indexed": false,
          "internalType": "uint256",
          "name": "shares",
          "type": "uint256"
        }
      ],
      "name": "PayeeAdded",
      "type": "event"
    },
    {
      "anonymous": false,
      "inputs": [
        {
          "indexed": false,
          "internalType": "address",
          "name": "from",
          "type": "address"
        },
        {
          "indexed": false,
          "internalType": "uint256",
          "name": "amount",
          "type": "uint256"
        }
      ],
      "name": "PaymentReceived",
      "type": "event"
    },
    {
      "anonymous": false,
      "inputs": [
        {
          "indexed": false,
          "internalType": "address",
          "name": "to",
          "type": "address"
        },
        {
          "indexed": false,
          "internalType": "uint256",
          "name": "amount",
          "type": "uint256"
        }
      ],
      "name": "PaymentReleased",
      "type": "event"
    },
    {
      "inputs": [
        {
          "internalType": "uint256",
          "name": "index",
          "type": "uint256"
        }
      ],
      "name": "payee",
      "outputs": [
        {
          "internalType": "address",
          "name": "",
          "type": "address"
        }
      ],
      "stateMutability": "view",
      "type": "function"
    },
    {
      "inputs": [
        {
          "internalType": "address payable",
          "name": "account",
          "type": "address"
        }
      ],
      "name": "release",
      "outputs": [],
      "stateMutability": "nonpayable",
      "type": "function"
    },
    {
      "inputs": [
        {
          "internalType": "contract IERC20",
          "name": "token",
          "type": "address"
        },
        {
          "internalType": "address",
          "name": "account",
          "type": "address"
        }
      ],
      "name": "release",
      "outputs": [],
      "stateMutability": "nonpayable",
      "type": "function"
    },
    {
      "inputs": [
        {
          "internalType": "address payable",
          "name": "account",
          "type": "address"
        }
      ],
      "name": "release_eth",
      "outputs": [],
      "stateMutability": "nonpayable",
      "type": "function"
    },
    {
      "inputs": [
        {
          "internalType": "contract IERC20",
          "name": "token",
          "type": "address"
        },
        {
          "internalType": "address",
          "name": "account",
          "type": "address"
        }
      ],
      "name": "released",
      "outputs": [
        {
          "internalType": "uint256",
          "name": "",
          "type": "uint256"
        }
      ],
      "stateMutability": "view",
      "type": "function"
    },
    {
      "inputs": [
        {
          "internalType": "address",
          "name": "account",
          "type": "address"
        }
      ],
      "name": "released",
      "outputs": [
        {
          "internalType": "uint256",
          "name": "",
          "type": "uint256"
        }
      ],
      "stateMutability": "view",
      "type": "function"
    },
    {
      "inputs": [
        {
          "internalType": "address",
          "name": "account",
          "type": "address"
        }
      ],
      "name": "shares",
      "outputs": [
        {
          "internalType": "uint256",
          "name": "",
          "type": "uint256"
        }
      ],
      "stateMutability": "view",
      "type": "function"
    },
    {
      "inputs": [
        {
          "internalType": "contract IERC20",
          "name": "token",
          "type": "address"
        }
      ],
      "name": "totalReleased",
      "outputs": [
        {
          "internalType": "uint256",
          "name": "",
          "type": "uint256"
        }
      ],
      "stateMutability": "view",
      "type": "function"
    },
    {
      "inputs": [],
      "name": "totalReleased",
      "outputs": [
        {
          "internalType": "uint256",
          "name": "",
          "type": "uint256"
        }
      ],
      "stateMutability": "view",
      "type": "function"
    },
    {
      "inputs": [],
      "name": "totalShares",
      "outputs": [
        {
          "internalType": "uint256",
          "name": "",
          "type": "uint256"
        }
      ],
      "stateMutability": "view",
      "type": "function"
    },
    {
      "stateMutability": "payable",
      "type": "receive"
    }
  ],
  "bytecode": "0x6080604052604051620022da380380620022da833981810160405281019062000029919062000527565b8181805182511462000072576040517f08c379a00000000000000000000000000000000000000000000000000000000081526004016200006990620006ce565b60405180910390fd5b6000825111620000b9576040517f08c379a0000000000000000000000000000000000000000000000000000000008152600401620000b09062000712565b60405180910390fd5b60005b825181101562000170576200015a83828151811062000104577f4e487b7100000000000000000000000000000000000000000000000000000000600052603260045260246000fd5b602002602001015183838151811062000146577f4e487b7100000000000000000000000000000000000000000000000000000000600052603260045260246000fd5b60200260200101516200017b60201b60201c565b80806200016790620008bf565b915050620000bc565b505050505062000aef565b600073ffffffffffffffffffffffffffffffffffffffff168273ffffffffffffffffffffffffffffffffffffffff161415620001ee576040517f08c379a0000000000000000000000000000000000000000000000000000000008152600401620001e590620006ac565b60405180910390fd5b6000811162000234576040517f08c379a00000000000000000000000000000000000000000000000000000000081526004016200022b9062000734565b60405180910390fd5b6000600260008473ffffffffffffffffffffffffffffffffffffffff1673ffffffffffffffffffffffffffffffffffffffff1681526020019081526020016000205414620002b9576040517f08c379a0000000000000000000000000000000000000000000000000000000008152600401620002b090620006f0565b60405180910390fd5b6004829080600181540180825580915050600190039060005260206000200160009091909190916101000a81548173ffffffffffffffffffffffffffffffffffffffff021916908373ffffffffffffffffffffffffffffffffffffffff16021790555080600260008473ffffffffffffffffffffffffffffffffffffffff1673ffffffffffffffffffffffffffffffffffffffff1681526020019081526020016000208190555080600054620003709190620007ee565b6000819055507f40c340f65e17194d14ddddb073d3c9f888e3cb52b5aae0c6c7706b4fbc905fac8282604051620003a99291906200067f565b60405180910390a15050565b6000620003cc620003c6846200077f565b62000756565b90508083825260208201905082856020860282011115620003ec57600080fd5b60005b858110156200042057816200040588826200049f565b845260208401935060208301925050600181019050620003ef565b5050509392505050565b6000620004416200043b84620007ae565b62000756565b905080838252602082019050828560208602820111156200046157600080fd5b60005b858110156200049557816200047a888262000510565b84526020840193506020830192505060018101905062000464565b5050509392505050565b600081519050620004b08162000abb565b92915050565b600082601f830112620004c857600080fd5b8151620004da848260208601620003b5565b91505092915050565b600082601f830112620004f557600080fd5b8151620005078482602086016200042a565b91505092915050565b600081519050620005218162000ad5565b92915050565b600080604083850312156200053b57600080fd5b600083015167ffffffffffffffff8111156200055657600080fd5b6200056485828601620004b6565b925050602083015167ffffffffffffffff8111156200058257600080fd5b6200059085828601620004e3565b9150509250929050565b620005a5816200084b565b82525050565b6000620005ba602c83620007dd565b9150620005c7826200097c565b604082019050919050565b6000620005e1603283620007dd565b9150620005ee82620009cb565b604082019050919050565b600062000608602b83620007dd565b9150620006158262000a1a565b604082019050919050565b60006200062f601a83620007dd565b91506200063c8262000a69565b602082019050919050565b600062000656601d83620007dd565b9150620006638262000a92565b602082019050919050565b62000679816200087f565b82525050565b60006040820190506200069660008301856200059a565b620006a560208301846200066e565b9392505050565b60006020820190508181036000830152620006c781620005ab565b9050919050565b60006020820190508181036000830152620006e981620005d2565b9050919050565b600060208201905081810360008301526200070b81620005f9565b9050919050565b600060208201905081810360008301526200072d8162000620565b9050919050565b600060208201905081810360008301526200074f8162000647565b9050919050565b60006200076262000775565b905062000770828262000889565b919050565b6000604051905090565b600067ffffffffffffffff8211156200079d576200079c6200093c565b5b602082029050602081019050919050565b600067ffffffffffffffff821115620007cc57620007cb6200093c565b5b602082029050602081019050919050565b600082825260208201905092915050565b6000620007fb826200087f565b915062000808836200087f565b9250827fffffffffffffffffffffffffffffffffffffffffffffffffffffffffffffffff0382111562000840576200083f6200090d565b5b828201905092915050565b600062000858826200085f565b9050919050565b600073ffffffffffffffffffffffffffffffffffffffff82169050919050565b6000819050919050565b62000894826200096b565b810181811067ffffffffffffffff82111715620008b657620008b56200093c565b5b80604052505050565b6000620008cc826200087f565b91507fffffffffffffffffffffffffffffffffffffffffffffffffffffffffffffffff8214156200090257620009016200090d565b5b600182019050919050565b7f4e487b7100000000000000000000000000000000000000000000000000000000600052601160045260246000fd5b7f4e487b7100000000000000000000000000000000000000000000000000000000600052604160045260246000fd5b6000601f19601f8301169050919050565b7f5061796d656e7453706c69747465723a206163636f756e74206973207468652060008201527f7a65726f20616464726573730000000000000000000000000000000000000000602082015250565b7f5061796d656e7453706c69747465723a2070617965657320616e64207368617260008201527f6573206c656e677468206d69736d617463680000000000000000000000000000602082015250565b7f5061796d656e7453706c69747465723a206163636f756e7420616c726561647960008201527f2068617320736861726573000000000000000000000000000000000000000000602082015250565b7f5061796d656e7453706c69747465723a206e6f20706179656573000000000000600082015250565b7f5061796d656e7453706c69747465723a20736861726573206172652030000000600082015250565b62000ac6816200084b565b811462000ad257600080fd5b50565b62000ae0816200087f565b811462000aec57600080fd5b50565b6117db8062000aff6000396000f3fe6080604052600436106100955760003560e01c80638b83209b116100595780638b83209b146101c45780639852595c14610201578063ce7c2ac21461023e578063d79779b21461027b578063e33b7de3146102b8576100dc565b806319165587146100e15780633a98ef391461010a578063406072a91461013557806348b75044146101725780634ab39af31461019b576100dc565b366100dc577f6ef95f06320e7a25a04a175ca677b7052bdd97131872c2192525a629f51be7706100c36102e3565b346040516100d2929190611181565b60405180910390a1005b600080fd5b3480156100ed57600080fd5b5061010860048036038101906101039190610e59565b6102eb565b005b34801561011657600080fd5b5061011f610496565b60405161012c91906112ac565b60405180910390f35b34801561014157600080fd5b5061015c60048036038101906101579190610ed4565b61049f565b60405161016991906112ac565b60405180910390f35b34801561017e57600080fd5b5061019960048036038101906101949190610ed4565b610526565b005b3480156101a757600080fd5b506101c260048036038101906101bd9190610e59565b6107ee565b005b3480156101d057600080fd5b506101eb60048036038101906101e69190610f10565b6107fa565b6040516101f8919061113d565b60405180910390f35b34801561020d57600080fd5b5061022860048036038101906102239190610e30565b610868565b60405161023591906112ac565b60405180910390f35b34801561024a57600080fd5b5061026560048036038101906102609190610e30565b6108b1565b60405161027291906112ac565b60405180910390f35b34801561028757600080fd5b506102a2600480360381019061029d9190610eab565b6108fa565b6040516102af91906112ac565b60405180910390f35b3480156102c457600080fd5b506102cd610943565b6040516102da91906112ac565b60405180910390f35b600033905090565b6000600260008373ffffffffffffffffffffffffffffffffffffffff1673ffffffffffffffffffffffffffffffffffffffff168152602001908152602001600020541161036d576040517f08c379a0000000000000000000000000000000000000000000000000000000008152600401610364906111cc565b60405180910390fd5b6000610377610943565b4761038291906112f9565b90506000610399838361039486610868565b61094d565b905060008114156103df576040517f08c379a00000000000000000000000000000000000000000000000000000000081526004016103d69061124c565b60405180910390fd5b80600360008573ffffffffffffffffffffffffffffffffffffffff1673ffffffffffffffffffffffffffffffffffffffff168152602001908152602001600020600082825461042e91906112f9565b92505081905550806001600082825461044791906112f9565b9250508190555061045883826109bb565b7fdf20fd1e76bc69d672e4814fafb2c449bba3a5369d8359adf9e05e6fde87b0568382604051610489929190611158565b60405180910390a1505050565b60008054905090565b6000600660008473ffffffffffffffffffffffffffffffffffffffff1673ffffffffffffffffffffffffffffffffffffffff16815260200190815260200160002060008373ffffffffffffffffffffffffffffffffffffffff1673ffffffffffffffffffffffffffffffffffffffff16815260200190815260200160002054905092915050565b6000600260008373ffffffffffffffffffffffffffffffffffffffff1673ffffffffffffffffffffffffffffffffffffffff16815260200190815260200160002054116105a8576040517f08c379a000000000000000000000000000000000000000000000000000000000815260040161059f906111cc565b60405180910390fd5b60006105b3836108fa565b8373ffffffffffffffffffffffffffffffffffffffff166370a08231306040518263ffffffff1660e01b81526004016105ec919061113d565b60206040518083038186803b15801561060457600080fd5b505afa158015610618573d6000803e3d6000fd5b505050506040513d601f19601f8201168201806040525081019061063c9190610f39565b61064691906112f9565b9050600061065e8383610659878761049f565b61094d565b905060008114156106a4576040517f08c379a000000000000000000000000000000000000000000000000000000000815260040161069b9061124c565b60405180910390fd5b80600660008673ffffffffffffffffffffffffffffffffffffffff1673ffffffffffffffffffffffffffffffffffffffff16815260200190815260200160002060008573ffffffffffffffffffffffffffffffffffffffff1673ffffffffffffffffffffffffffffffffffffffff168152602001908152602001600020600082825461073091906112f9565b9250508190555080600560008673ffffffffffffffffffffffffffffffffffffffff1673ffffffffffffffffffffffffffffffffffffffff168152602001908152602001600020600082825461078691906112f9565b92505081905550610798848483610aaf565b8373ffffffffffffffffffffffffffffffffffffffff167f3be5b7a71e84ed12875d241991c70855ac5817d847039e17a9d895c1ceb0f18a84836040516107e0929190611181565b60405180910390a250505050565b6107f7816102eb565b50565b600060048281548110610836577f4e487b7100000000000000000000000000000000000000000000000000000000600052603260045260246000fd5b9060005260206000200160009054906101000a900473ffffffffffffffffffffffffffffffffffffffff169050919050565b6000600360008373ffffffffffffffffffffffffffffffffffffffff1673ffffffffffffffffffffffffffffffffffffffff168152602001908152602001600020549050919050565b6000600260008373ffffffffffffffffffffffffffffffffffffffff1673ffffffffffffffffffffffffffffffffffffffff168152602001908152602001600020549050919050565b6000600560008373ffffffffffffffffffffffffffffffffffffffff1673ffffffffffffffffffffffffffffffffffffffff168152602001908152602001600020549050919050565b6000600154905090565b600081600054600260008773ffffffffffffffffffffffffffffffffffffffff1673ffffffffffffffffffffffffffffffffffffffff168152602001908152602001600020548561099e9190611380565b6109a8919061134f565b6109b291906113da565b90509392505050565b804710156109fe576040517f08c379a00000000000000000000000000000000000000000000000000000000081526004016109f59061120c565b60405180910390fd5b60008273ffffffffffffffffffffffffffffffffffffffff1682604051610a2490611128565b60006040518083038185875af1925050503d8060008114610a61576040519150601f19603f3d011682016040523d82523d6000602084013e610a66565b606091505b5050905080610aaa576040517f08c379a0000000000000000000000000000000000000000000000000000000008152600401610aa1906111ec565b60405180910390fd5b505050565b610b308363a9059cbb60e01b8484604051602401610ace929190611181565b604051602081830303815290604052907bffffffffffffffffffffffffffffffffffffffffffffffffffffffff19166020820180517bffffffffffffffffffffffffffffffffffffffffffffffffffffffff8381831617835250505050610b35565b505050565b6000610b97826040518060400160405280602081526020017f5361666545524332303a206c6f772d6c6576656c2063616c6c206661696c65648152508573ffffffffffffffffffffffffffffffffffffffff16610bfc9092919063ffffffff16565b9050600081511115610bf75780806020019051810190610bb79190610e82565b610bf6576040517f08c379a0000000000000000000000000000000000000000000000000000000008152600401610bed9061128c565b60405180910390fd5b5b505050565b6060610c0b8484600085610c14565b90509392505050565b606082471015610c59576040517f08c379a0000000000000000000000000000000000000000000000000000000008152600401610c509061122c565b60405180910390fd5b610c6285610d28565b610ca1576040517f08c379a0000000000000000000000000000000000000000000000000000000008152600401610c989061126c565b60405180910390fd5b6000808673ffffffffffffffffffffffffffffffffffffffff168587604051610cca9190611111565b60006040518083038185875af1925050503d8060008114610d07576040519150601f19603f3d011682016040523d82523d6000602084013e610d0c565b606091505b5091509150610d1c828286610d4b565b92505050949350505050565b6000808273ffffffffffffffffffffffffffffffffffffffff163b119050919050565b60608315610d5b57829050610dab565b600083511115610d6e5782518084602001fd5b816040517f08c379a0000000000000000000000000000000000000000000000000000000008152600401610da291906111aa565b60405180910390fd5b9392505050565b600081359050610dc181611732565b92915050565b600081359050610dd681611749565b92915050565b600081519050610deb81611760565b92915050565b600081359050610e0081611777565b92915050565b600081359050610e158161178e565b92915050565b600081519050610e2a8161178e565b92915050565b600060208284031215610e4257600080fd5b6000610e5084828501610db2565b91505092915050565b600060208284031215610e6b57600080fd5b6000610e7984828501610dc7565b91505092915050565b600060208284031215610e9457600080fd5b6000610ea284828501610ddc565b91505092915050565b600060208284031215610ebd57600080fd5b6000610ecb84828501610df1565b91505092915050565b60008060408385031215610ee757600080fd5b6000610ef585828601610df1565b9250506020610f0685828601610db2565b9150509250929050565b600060208284031215610f2257600080fd5b6000610f3084828501610e06565b91505092915050565b600060208284031215610f4b57600080fd5b6000610f5984828501610e1b565b91505092915050565b610f6b8161147a565b82525050565b610f7a8161140e565b82525050565b6000610f8b826112c7565b610f9581856112dd565b9350610fa58185602086016114b0565b80840191505092915050565b6000610fbc826112d2565b610fc681856112e8565b9350610fd68185602086016114b0565b610fdf81611541565b840191505092915050565b6000610ff76026836112e8565b915061100282611552565b604082019050919050565b600061101a603a836112e8565b9150611025826115a1565b604082019050919050565b600061103d601d836112e8565b9150611048826115f0565b602082019050919050565b60006110606026836112e8565b915061106b82611619565b604082019050919050565b6000611083602b836112e8565b915061108e82611668565b604082019050919050565b60006110a66000836112dd565b91506110b1826116b7565b600082019050919050565b60006110c9601d836112e8565b91506110d4826116ba565b602082019050919050565b60006110ec602a836112e8565b91506110f7826116e3565b604082019050919050565b61110b81611470565b82525050565b600061111d8284610f80565b915081905092915050565b600061113382611099565b9150819050919050565b60006020820190506111526000830184610f71565b92915050565b600060408201905061116d6000830185610f62565b61117a6020830184611102565b9392505050565b60006040820190506111966000830185610f71565b6111a36020830184611102565b9392505050565b600060208201905081810360008301526111c48184610fb1565b905092915050565b600060208201905081810360008301526111e581610fea565b9050919050565b600060208201905081810360008301526112058161100d565b9050919050565b6000602082019050818103600083015261122581611030565b9050919050565b6000602082019050818103600083015261124581611053565b9050919050565b6000602082019050818103600083015261126581611076565b9050919050565b60006020820190508181036000830152611285816110bc565b9050919050565b600060208201905081810360008301526112a5816110df565b9050919050565b60006020820190506112c16000830184611102565b92915050565b600081519050919050565b600081519050919050565b600081905092915050565b600082825260208201905092915050565b600061130482611470565b915061130f83611470565b9250827fffffffffffffffffffffffffffffffffffffffffffffffffffffffffffffffff03821115611344576113436114e3565b5b828201905092915050565b600061135a82611470565b915061136583611470565b92508261137557611374611512565b5b828204905092915050565b600061138b82611470565b915061139683611470565b9250817fffffffffffffffffffffffffffffffffffffffffffffffffffffffffffffffff04831182151516156113cf576113ce6114e3565b5b828202905092915050565b60006113e582611470565b91506113f083611470565b925082821015611403576114026114e3565b5b828203905092915050565b600061141982611450565b9050919050565b600061142b82611450565b9050919050565b60008115159050919050565b60006114498261140e565b9050919050565b600073ffffffffffffffffffffffffffffffffffffffff82169050919050565b6000819050919050565b60006114858261148c565b9050919050565b60006114978261149e565b9050919050565b60006114a982611450565b9050919050565b60005b838110156114ce5780820151818401526020810190506114b3565b838111156114dd576000848401525b50505050565b7f4e487b7100000000000000000000000000000000000000000000000000000000600052601160045260246000fd5b7f4e487b7100000000000000000000000000000000000000000000000000000000600052601260045260246000fd5b6000601f19601f8301169050919050565b7f5061796d656e7453706c69747465723a206163636f756e7420686173206e6f2060008201527f7368617265730000000000000000000000000000000000000000000000000000602082015250565b7f416464726573733a20756e61626c6520746f2073656e642076616c75652c207260008201527f6563697069656e74206d61792068617665207265766572746564000000000000602082015250565b7f416464726573733a20696e73756666696369656e742062616c616e6365000000600082015250565b7f416464726573733a20696e73756666696369656e742062616c616e636520666f60008201527f722063616c6c0000000000000000000000000000000000000000000000000000602082015250565b7f5061796d656e7453706c69747465723a206163636f756e74206973206e6f742060008201527f647565207061796d656e74000000000000000000000000000000000000000000602082015250565b50565b7f416464726573733a2063616c6c20746f206e6f6e2d636f6e7472616374000000600082015250565b7f5361666545524332303a204552433230206f7065726174696f6e20646964206e60008201527f6f74207375636365656400000000000000000000000000000000000000000000602082015250565b61173b8161140e565b811461174657600080fd5b50565b61175281611420565b811461175d57600080fd5b50565b61176981611432565b811461177457600080fd5b50565b6117808161143e565b811461178b57600080fd5b50565b61179781611470565b81146117a257600080fd5b5056fea2646970667358221220e2d444c63dd291b68575d3098ea7146e9fc172cda35c5f9d4349d88a0e9aca3b64736f6c63430008040033",
  "linkReferences": {},
  "deployedLinkReferences": {}
}