{
  "_format": "hh-sol-artifact-1",
  "contractName": "NFT_USE_PAYMENTS",
  "sourceName": "contracts/NFT_USE_PAYMENTS.sol",
  "abi": [
    {
      "inputs": [
        {
          "internalType": "address",
          "name": "_payments",
          "type": "address"
        }
      ],
      "stateMutability": "nonpayable",
      "type": "constructor"
    },
    {
      "anonymous": false,
      "inputs": [
        {
          "indexed": true,
          "internalType": "address",
          "name": "owner",
          "type": "address"
        },
        {
          "indexed": true,
          "internalType": "address",
          "name": "approved",
          "type": "address"
        },
        {
          "indexed": true,
          "internalType": "uint256",
          "name": "tokenId",
          "type": "uint256"
        }
      ],
      "name": "Approval",
      "type": "event"
    },
    {
      "anonymous": false,
      "inputs": [
        {
          "indexed": true,
          "internalType": "address",
          "name": "owner",
          "type": "address"
        },
        {
          "indexed": true,
          "internalType": "address",
          "name": "operator",
          "type": "address"
        },
        {
          "indexed": false,
          "internalType": "bool",
          "name": "approved",
          "type": "bool"
        }
      ],
      "name": "ApprovalForAll",
      "type": "event"
    },
    {
      "anonymous": false,
      "inputs": [
        {
          "indexed": true,
          "internalType": "address",
          "name": "previousOwner",
          "type": "address"
        },
        {
          "indexed": true,
          "internalType": "address",
          "name": "newOwner",
          "type": "address"
        }
      ],
      "name": "OwnershipTransferred",
      "type": "event"
    },
    {
      "anonymous": false,
      "inputs": [
        {
          "indexed": true,
          "internalType": "address",
          "name": "from",
          "type": "address"
        },
        {
          "indexed": true,
          "internalType": "address",
          "name": "to",
          "type": "address"
        },
        {
          "indexed": true,
          "internalType": "uint256",
          "name": "tokenId",
          "type": "uint256"
        }
      ],
      "name": "Transfer",
      "type": "event"
    },
    {
      "inputs": [
        {
          "internalType": "address",
          "name": "to",
          "type": "address"
        },
        {
          "internalType": "uint256",
          "name": "tokenId",
          "type": "uint256"
        }
      ],
      "name": "approve",
      "outputs": [],
      "stateMutability": "nonpayable",
      "type": "function"
    },
    {
      "inputs": [
        {
          "internalType": "address",
          "name": "owner",
          "type": "address"
        }
      ],
      "name": "balanceOf",
      "outputs": [
        {
          "internalType": "uint256",
          "name": "",
          "type": "uint256"
        }
      ],
      "stateMutability": "view",
      "type": "function"
    },
    {
      "inputs": [],
      "name": "count",
      "outputs": [
        {
          "internalType": "uint256",
          "name": "",
          "type": "uint256"
        }
      ],
      "stateMutability": "view",
      "type": "function"
    },
    {
      "inputs": [
        {
          "internalType": "uint256",
          "name": "tokenId",
          "type": "uint256"
        }
      ],
      "name": "getApproved",
      "outputs": [
        {
          "internalType": "address",
          "name": "",
          "type": "address"
        }
      ],
      "stateMutability": "view",
      "type": "function"
    },
    {
      "inputs": [
        {
          "internalType": "address",
          "name": "owner",
          "type": "address"
        },
        {
          "internalType": "address",
          "name": "operator",
          "type": "address"
        }
      ],
      "name": "isApprovedForAll",
      "outputs": [
        {
          "internalType": "bool",
          "name": "",
          "type": "bool"
        }
      ],
      "stateMutability": "view",
      "type": "function"
    },
    {
      "inputs": [
        {
          "internalType": "string",
          "name": "uri",
          "type": "string"
        }
      ],
      "name": "isContentOwned",
      "outputs": [
        {
          "internalType": "bool",
          "name": "",
          "type": "bool"
        }
      ],
      "stateMutability": "view",
      "type": "function"
    },
    {
      "inputs": [],
      "name": "name",
      "outputs": [
        {
          "internalType": "string",
          "name": "",
          "type": "string"
        }
      ],
      "stateMutability": "view",
      "type": "function"
    },
    {
      "inputs": [],
      "name": "owner",
      "outputs": [
        {
          "internalType": "address",
          "name": "",
          "type": "address"
        }
      ],
      "stateMutability": "view",
      "type": "function"
    },
    {
      "inputs": [
        {
          "internalType": "uint256",
          "name": "tokenId",
          "type": "uint256"
        }
      ],
      "name": "ownerOf",
      "outputs": [
        {
          "internalType": "address",
          "name": "",
          "type": "address"
        }
      ],
      "stateMutability": "view",
      "type": "function"
    },
    {
      "inputs": [
        {
          "internalType": "address",
          "name": "recipient",
          "type": "address"
        },
        {
          "internalType": "string",
          "name": "metadataURI",
          "type": "string"
        }
      ],
      "name": "payToMint",
      "outputs": [
        {
          "internalType": "uint256",
          "name": "",
          "type": "uint256"
        }
      ],
      "stateMutability": "payable",
      "type": "function"
    },
    {
      "inputs": [],
      "name": "payments",
      "outputs": [
        {
          "internalType": "address payable",
          "name": "",
          "type": "address"
        }
      ],
      "stateMutability": "view",
      "type": "function"
    },
    {
      "inputs": [],
      "name": "renounceOwnership",
      "outputs": [],
      "stateMutability": "nonpayable",
      "type": "function"
    },
    {
      "inputs": [
        {
          "internalType": "address",
          "name": "to",
          "type": "address"
        },
        {
          "internalType": "string",
          "name": "uri",
          "type": "string"
        }
      ],
      "name": "safeMint",
      "outputs": [],
      "stateMutability": "nonpayable",
      "type": "function"
    },
    {
      "inputs": [
        {
          "internalType": "address",
          "name": "from",
          "type": "address"
        },
        {
          "internalType": "address",
          "name": "to",
          "type": "address"
        },
        {
          "internalType": "uint256",
          "name": "tokenId",
          "type": "uint256"
        }
      ],
      "name": "safeTransferFrom",
      "outputs": [],
      "stateMutability": "nonpayable",
      "type": "function"
    },
    {
      "inputs": [
        {
          "internalType": "address",
          "name": "from",
          "type": "address"
        },
        {
          "internalType": "address",
          "name": "to",
          "type": "address"
        },
        {
          "internalType": "uint256",
          "name": "tokenId",
          "type": "uint256"
        },
        {
          "internalType": "bytes",
          "name": "_data",
          "type": "bytes"
        }
      ],
      "name": "safeTransferFrom",
      "outputs": [],
      "stateMutability": "nonpayable",
      "type": "function"
    },
    {
      "inputs": [
        {
          "internalType": "address",
          "name": "operator",
          "type": "address"
        },
        {
          "internalType": "bool",
          "name": "approved",
          "type": "bool"
        }
      ],
      "name": "setApprovalForAll",
      "outputs": [],
      "stateMutability": "nonpayable",
      "type": "function"
    },
    {
      "inputs": [
        {
          "internalType": "bytes4",
          "name": "interfaceId",
          "type": "bytes4"
        }
      ],
      "name": "supportsInterface",
      "outputs": [
        {
          "internalType": "bool",
          "name": "",
          "type": "bool"
        }
      ],
      "stateMutability": "view",
      "type": "function"
    },
    {
      "inputs": [],
      "name": "symbol",
      "outputs": [
        {
          "internalType": "string",
          "name": "",
          "type": "string"
        }
      ],
      "stateMutability": "view",
      "type": "function"
    },
    {
      "inputs": [
        {
          "internalType": "uint256",
          "name": "tokenId",
          "type": "uint256"
        }
      ],
      "name": "tokenURI",
      "outputs": [
        {
          "internalType": "string",
          "name": "",
          "type": "string"
        }
      ],
      "stateMutability": "view",
      "type": "function"
    },
    {
      "inputs": [
        {
          "internalType": "address",
          "name": "from",
          "type": "address"
        },
        {
          "internalType": "address",
          "name": "to",
          "type": "address"
        },
        {
          "internalType": "uint256",
          "name": "tokenId",
          "type": "uint256"
        }
      ],
      "name": "transferFrom",
      "outputs": [],
      "stateMutability": "nonpayable",
      "type": "function"
    },
    {
      "inputs": [
        {
          "internalType": "address",
          "name": "newOwner",
          "type": "address"
        }
      ],
      "name": "transferOwnership",
      "outputs": [],
      "stateMutability": "nonpayable",
      "type": "function"
    },
    {
      "inputs": [],
      "name": "withdraw",
      "outputs": [],
      "stateMutability": "payable",
      "type": "function"
    }
  ],
  "bytecode": "0x60806040523480156200001157600080fd5b5060405162003ab538038062003ab58339818101604052810190620000379190620002d4565b6040518060400160405280600581526020017f546f6b656e0000000000000000000000000000000000000000000000000000008152506040518060400160405280600281526020017f54540000000000000000000000000000000000000000000000000000000000008152508160009080519060200190620000bb9291906200020d565b508060019080519060200190620000d49291906200020d565b505050620000f7620000eb6200013f60201b60201c565b6200014760201b60201c565b80600a60006101000a81548173ffffffffffffffffffffffffffffffffffffffff021916908373ffffffffffffffffffffffffffffffffffffffff16021790555050620003b3565b600033905090565b6000600760009054906101000a900473ffffffffffffffffffffffffffffffffffffffff16905081600760006101000a81548173ffffffffffffffffffffffffffffffffffffffff021916908373ffffffffffffffffffffffffffffffffffffffff1602179055508173ffffffffffffffffffffffffffffffffffffffff168173ffffffffffffffffffffffffffffffffffffffff167f8be0079c531659141344cd1fd0a4f28419497f9722a3daafe3b4186f6b6457e060405160405180910390a35050565b8280546200021b9062000334565b90600052602060002090601f0160209004810192826200023f57600085556200028b565b82601f106200025a57805160ff19168380011785556200028b565b828001600101855582156200028b579182015b828111156200028a5782518255916020019190600101906200026d565b5b5090506200029a91906200029e565b5090565b5b80821115620002b95760008160009055506001016200029f565b5090565b600081519050620002ce8162000399565b92915050565b600060208284031215620002e757600080fd5b6000620002f784828501620002bd565b91505092915050565b60006200030d8262000314565b9050919050565b600073ffffffffffffffffffffffffffffffffffffffff82169050919050565b600060028204905060018216806200034d57607f821691505b602082108114156200036457620003636200036a565b5b50919050565b7f4e487b7100000000000000000000000000000000000000000000000000000000600052602260045260246000fd5b620003a48162000300565b8114620003b057600080fd5b50565b6136f280620003c36000396000f3fe6080604052600436106101355760003560e01c8063715018a6116100ab578063a6d23e101161006f578063a6d23e101461040c578063b88d4fde14610437578063c87b56dd14610460578063d204c45e1461049d578063e985e9c5146104c6578063f2fde38b1461050357610135565b8063715018a6146103395780638da5cb5b1461035057806395d89b411461037b5780639f1cabc6146103a6578063a22cb465146103e357610135565b806323b872dd116100fd57806323b872dd146102335780633ccfd60b1461025c57806342842e0e14610266578063615fd9e21461028f5780636352211e146102bf57806370a08231146102fc57610135565b806301ffc9a71461013a57806306661abd1461017757806306fdde03146101a2578063081812fc146101cd578063095ea7b31461020a575b600080fd5b34801561014657600080fd5b50610161600480360381019061015c91906124ef565b61052c565b60405161016e9190612a3b565b60405180910390f35b34801561018357600080fd5b5061018c61060e565b6040516101999190612cf8565b60405180910390f35b3480156101ae57600080fd5b506101b761061f565b6040516101c49190612a56565b60405180910390f35b3480156101d957600080fd5b506101f460048036038101906101ef9190612582565b6106b1565b60405161020191906129b9565b60405180910390f35b34801561021657600080fd5b50610231600480360381019061022c91906124b3565b610736565b005b34801561023f57600080fd5b5061025a60048036038101906102559190612359565b61084e565b005b6102646108ae565b005b34801561027257600080fd5b5061028d60048036038101906102889190612359565b6109c5565b005b6102a960048036038101906102a4919061245f565b6109e5565b6040516102b69190612cf8565b60405180910390f35b3480156102cb57600080fd5b506102e660048036038101906102e19190612582565b610b11565b6040516102f391906129b9565b60405180910390f35b34801561030857600080fd5b50610323600480360381019061031e91906122f4565b610bc3565b6040516103309190612cf8565b60405180910390f35b34801561034557600080fd5b5061034e610c7b565b005b34801561035c57600080fd5b50610365610d03565b60405161037291906129b9565b60405180910390f35b34801561038757600080fd5b50610390610d2d565b60405161039d9190612a56565b60405180910390f35b3480156103b257600080fd5b506103cd60048036038101906103c89190612541565b610dbf565b6040516103da9190612a3b565b60405180910390f35b3480156103ef57600080fd5b5061040a60048036038101906104059190612423565b610dfa565b005b34801561041857600080fd5b50610421610e10565b60405161042e91906129d4565b60405180910390f35b34801561044357600080fd5b5061045e600480360381019061045991906123a8565b610e36565b005b34801561046c57600080fd5b5061048760048036038101906104829190612582565b610e98565b6040516104949190612a56565b60405180910390f35b3480156104a957600080fd5b506104c460048036038101906104bf919061245f565b610eaa565b005b3480156104d257600080fd5b506104ed60048036038101906104e8919061231d565b610f8f565b6040516104fa9190612a3b565b60405180910390f35b34801561050f57600080fd5b5061052a600480360381019061052591906122f4565b611023565b005b60007f80ac58cd000000000000000000000000000000000000000000000000000000007bffffffffffffffffffffffffffffffffffffffffffffffffffffffff1916827bffffffffffffffffffffffffffffffffffffffffffffffffffffffff191614806105f757507f5b5e139f000000000000000000000000000000000000000000000000000000007bffffffffffffffffffffffffffffffffffffffffffffffffffffffff1916827bffffffffffffffffffffffffffffffffffffffffffffffffffffffff1916145b8061060757506106068261111b565b5b9050919050565b600061061a6008611185565b905090565b60606000805461062e90612f6b565b80601f016020809104026020016040519081016040528092919081815260200182805461065a90612f6b565b80156106a75780601f1061067c576101008083540402835291602001916106a7565b820191906000526020600020905b81548152906001019060200180831161068a57829003601f168201915b5050505050905090565b60006106bc82611193565b6106fb576040517f08c379a00000000000000000000000000000000000000000000000000000000081526004016106f290612c18565b60405180910390fd5b6004600083815260200190815260200160002060009054906101000a900473ffffffffffffffffffffffffffffffffffffffff169050919050565b600061074182610b11565b90508073ffffffffffffffffffffffffffffffffffffffff168373ffffffffffffffffffffffffffffffffffffffff1614156107b2576040517f08c379a00000000000000000000000000000000000000000000000000000000081526004016107a990612c78565b60405180910390fd5b8073ffffffffffffffffffffffffffffffffffffffff166107d16111ff565b73ffffffffffffffffffffffffffffffffffffffff16148061080057506107ff816107fa6111ff565b610f8f565b5b61083f576040517f08c379a000000000000000000000000000000000000000000000000000000000815260040161083690612b58565b60405180910390fd5b6108498383611207565b505050565b61085f6108596111ff565b826112c0565b61089e576040517f08c379a000000000000000000000000000000000000000000000000000000000815260040161089590612c98565b60405180910390fd5b6108a983838361139e565b505050565b6108b66111ff565b73ffffffffffffffffffffffffffffffffffffffff166108d4610d03565b73ffffffffffffffffffffffffffffffffffffffff161461092a576040517f08c379a000000000000000000000000000000000000000000000000000000000815260040161092190612c38565b60405180910390fd5b6000600a60009054906101000a900473ffffffffffffffffffffffffffffffffffffffff1673ffffffffffffffffffffffffffffffffffffffff1647604051610972906129a4565b60006040518083038185875af1925050503d80600081146109af576040519150601f19603f3d011682016040523d82523d6000602084013e6109b4565b606091505b50509050806109c257600080fd5b50565b6109e083838360405180602001604052806000815250610e36565b505050565b600060016009836040516109f99190612969565b908152602001604051809103902060009054906101000a900460ff1660ff161415610a59576040517f08c379a0000000000000000000000000000000000000000000000000000000008152600401610a5090612cb8565b60405180910390fd5b66b1a2bc2ec50000341015610aa3576040517f08c379a0000000000000000000000000000000000000000000000000000000008152600401610a9a90612cd8565b60405180910390fd5b6000610aaf6008611185565b9050610abb6008611605565b6001600984604051610acd9190612969565b908152602001604051809103902060006101000a81548160ff021916908360ff160217905550610afd848261161b565b610b0781846117f5565b8091505092915050565b6000806002600084815260200190815260200160002060009054906101000a900473ffffffffffffffffffffffffffffffffffffffff169050600073ffffffffffffffffffffffffffffffffffffffff168173ffffffffffffffffffffffffffffffffffffffff161415610bba576040517f08c379a0000000000000000000000000000000000000000000000000000000008152600401610bb190612b98565b60405180910390fd5b80915050919050565b60008073ffffffffffffffffffffffffffffffffffffffff168273ffffffffffffffffffffffffffffffffffffffff161415610c34576040517f08c379a0000000000000000000000000000000000000000000000000000000008152600401610c2b90612b78565b60405180910390fd5b600360008373ffffffffffffffffffffffffffffffffffffffff1673ffffffffffffffffffffffffffffffffffffffff168152602001908152602001600020549050919050565b610c836111ff565b73ffffffffffffffffffffffffffffffffffffffff16610ca1610d03565b73ffffffffffffffffffffffffffffffffffffffff1614610cf7576040517f08c379a0000000000000000000000000000000000000000000000000000000008152600401610cee90612c38565b60405180910390fd5b610d016000611869565b565b6000600760009054906101000a900473ffffffffffffffffffffffffffffffffffffffff16905090565b606060018054610d3c90612f6b565b80601f0160208091040260200160405190810160405280929190818152602001828054610d6890612f6b565b8015610db55780601f10610d8a57610100808354040283529160200191610db5565b820191906000526020600020905b815481529060010190602001808311610d9857829003601f168201915b5050505050905090565b60006001600983604051610dd39190612969565b908152602001604051809103902060009054906101000a900460ff1660ff16149050919050565b610e0c610e056111ff565b838361192f565b5050565b600a60009054906101000a900473ffffffffffffffffffffffffffffffffffffffff1681565b610e47610e416111ff565b836112c0565b610e86576040517f08c379a0000000000000000000000000000000000000000000000000000000008152600401610e7d90612c98565b60405180910390fd5b610e9284848484611a9c565b50505050565b6060610ea382611af8565b9050919050565b610eb26111ff565b73ffffffffffffffffffffffffffffffffffffffff16610ed0610d03565b73ffffffffffffffffffffffffffffffffffffffff1614610f26576040517f08c379a0000000000000000000000000000000000000000000000000000000008152600401610f1d90612c38565b60405180910390fd5b6000610f326008611185565b9050610f3e6008611605565b610f488382611c4a565b610f5281836117f5565b6001600983604051610f649190612969565b908152602001604051809103902060006101000a81548160ff021916908360ff160217905550505050565b6000600560008473ffffffffffffffffffffffffffffffffffffffff1673ffffffffffffffffffffffffffffffffffffffff16815260200190815260200160002060008373ffffffffffffffffffffffffffffffffffffffff1673ffffffffffffffffffffffffffffffffffffffff16815260200190815260200160002060009054906101000a900460ff16905092915050565b61102b6111ff565b73ffffffffffffffffffffffffffffffffffffffff16611049610d03565b73ffffffffffffffffffffffffffffffffffffffff161461109f576040517f08c379a000000000000000000000000000000000000000000000000000000000815260040161109690612c38565b60405180910390fd5b600073ffffffffffffffffffffffffffffffffffffffff168173ffffffffffffffffffffffffffffffffffffffff16141561110f576040517f08c379a000000000000000000000000000000000000000000000000000000000815260040161110690612a98565b60405180910390fd5b61111881611869565b50565b60007f01ffc9a7000000000000000000000000000000000000000000000000000000007bffffffffffffffffffffffffffffffffffffffffffffffffffffffff1916827bffffffffffffffffffffffffffffffffffffffffffffffffffffffff1916149050919050565b600081600001549050919050565b60008073ffffffffffffffffffffffffffffffffffffffff166002600084815260200190815260200160002060009054906101000a900473ffffffffffffffffffffffffffffffffffffffff1673ffffffffffffffffffffffffffffffffffffffff1614159050919050565b600033905090565b816004600083815260200190815260200160002060006101000a81548173ffffffffffffffffffffffffffffffffffffffff021916908373ffffffffffffffffffffffffffffffffffffffff160217905550808273ffffffffffffffffffffffffffffffffffffffff1661127a83610b11565b73ffffffffffffffffffffffffffffffffffffffff167f8c5be1e5ebec7d5bd14f71427d1e84f3dd0314c0f7b2291e5b200ac8c7c3b92560405160405180910390a45050565b60006112cb82611193565b61130a576040517f08c379a000000000000000000000000000000000000000000000000000000000815260040161130190612b38565b60405180910390fd5b600061131583610b11565b90508073ffffffffffffffffffffffffffffffffffffffff168473ffffffffffffffffffffffffffffffffffffffff16148061138457508373ffffffffffffffffffffffffffffffffffffffff1661136c846106b1565b73ffffffffffffffffffffffffffffffffffffffff16145b8061139557506113948185610f8f565b5b91505092915050565b8273ffffffffffffffffffffffffffffffffffffffff166113be82610b11565b73ffffffffffffffffffffffffffffffffffffffff1614611414576040517f08c379a000000000000000000000000000000000000000000000000000000000815260040161140b90612ab8565b60405180910390fd5b600073ffffffffffffffffffffffffffffffffffffffff168273ffffffffffffffffffffffffffffffffffffffff161415611484576040517f08c379a000000000000000000000000000000000000000000000000000000000815260040161147b90612af8565b60405180910390fd5b61148f838383611c68565b61149a600082611207565b6001600360008573ffffffffffffffffffffffffffffffffffffffff1673ffffffffffffffffffffffffffffffffffffffff16815260200190815260200160002060008282546114ea9190612e6f565b925050819055506001600360008473ffffffffffffffffffffffffffffffffffffffff1673ffffffffffffffffffffffffffffffffffffffff16815260200190815260200160002060008282546115419190612de8565b92505081905550816002600083815260200190815260200160002060006101000a81548173ffffffffffffffffffffffffffffffffffffffff021916908373ffffffffffffffffffffffffffffffffffffffff160217905550808273ffffffffffffffffffffffffffffffffffffffff168473ffffffffffffffffffffffffffffffffffffffff167fddf252ad1be2c89b69c2b068fc378daa952ba7f163c4a11628f55a4df523b3ef60405160405180910390a4611600838383611c6d565b505050565b6001816000016000828254019250508190555050565b600073ffffffffffffffffffffffffffffffffffffffff168273ffffffffffffffffffffffffffffffffffffffff16141561168b576040517f08c379a000000000000000000000000000000000000000000000000000000000815260040161168290612bd8565b60405180910390fd5b61169481611193565b156116d4576040517f08c379a00000000000000000000000000000000000000000000000000000000081526004016116cb90612ad8565b60405180910390fd5b6116e060008383611c68565b6001600360008473ffffffffffffffffffffffffffffffffffffffff1673ffffffffffffffffffffffffffffffffffffffff16815260200190815260200160002060008282546117309190612de8565b92505081905550816002600083815260200190815260200160002060006101000a81548173ffffffffffffffffffffffffffffffffffffffff021916908373ffffffffffffffffffffffffffffffffffffffff160217905550808273ffffffffffffffffffffffffffffffffffffffff16600073ffffffffffffffffffffffffffffffffffffffff167fddf252ad1be2c89b69c2b068fc378daa952ba7f163c4a11628f55a4df523b3ef60405160405180910390a46117f160008383611c6d565b5050565b6117fe82611193565b61183d576040517f08c379a000000000000000000000000000000000000000000000000000000000815260040161183490612bb8565b60405180910390fd5b80600660008481526020019081526020016000209080519060200190611864929190612118565b505050565b6000600760009054906101000a900473ffffffffffffffffffffffffffffffffffffffff16905081600760006101000a81548173ffffffffffffffffffffffffffffffffffffffff021916908373ffffffffffffffffffffffffffffffffffffffff1602179055508173ffffffffffffffffffffffffffffffffffffffff168173ffffffffffffffffffffffffffffffffffffffff167f8be0079c531659141344cd1fd0a4f28419497f9722a3daafe3b4186f6b6457e060405160405180910390a35050565b8173ffffffffffffffffffffffffffffffffffffffff168373ffffffffffffffffffffffffffffffffffffffff16141561199e576040517f08c379a000000000000000000000000000000000000000000000000000000000815260040161199590612b18565b60405180910390fd5b80600560008573ffffffffffffffffffffffffffffffffffffffff1673ffffffffffffffffffffffffffffffffffffffff16815260200190815260200160002060008473ffffffffffffffffffffffffffffffffffffffff1673ffffffffffffffffffffffffffffffffffffffff16815260200190815260200160002060006101000a81548160ff0219169083151502179055508173ffffffffffffffffffffffffffffffffffffffff168373ffffffffffffffffffffffffffffffffffffffff167f17307eab39ab6107e8899845ad3d59bd9653f200f220920489ca2b5937696c3183604051611a8f9190612a3b565b60405180910390a3505050565b611aa784848461139e565b611ab384848484611c72565b611af2576040517f08c379a0000000000000000000000000000000000000000000000000000000008152600401611ae990612a78565b60405180910390fd5b50505050565b6060611b0382611193565b611b42576040517f08c379a0000000000000000000000000000000000000000000000000000000008152600401611b3990612bf8565b60405180910390fd5b6000600660008481526020019081526020016000208054611b6290612f6b565b80601f0160208091040260200160405190810160405280929190818152602001828054611b8e90612f6b565b8015611bdb5780601f10611bb057610100808354040283529160200191611bdb565b820191906000526020600020905b815481529060010190602001808311611bbe57829003601f168201915b505050505090506000611bec611e09565b9050600081511415611c02578192505050611c45565b600082511115611c37578082604051602001611c1f929190612980565b60405160208183030381529060405292505050611c45565b611c4084611e46565b925050505b919050565b611c64828260405180602001604052806000815250611eed565b5050565b505050565b505050565b6000611c938473ffffffffffffffffffffffffffffffffffffffff16611f48565b15611dfc578373ffffffffffffffffffffffffffffffffffffffff1663150b7a02611cbc6111ff565b8786866040518563ffffffff1660e01b8152600401611cde94939291906129ef565b602060405180830381600087803b158015611cf857600080fd5b505af1925050508015611d2957506040513d601f19601f82011682018060405250810190611d269190612518565b60015b611dac573d8060008114611d59576040519150601f19603f3d011682016040523d82523d6000602084013e611d5e565b606091505b50600081511415611da4576040517f08c379a0000000000000000000000000000000000000000000000000000000008152600401611d9b90612a78565b60405180910390fd5b805181602001fd5b63150b7a0260e01b7bffffffffffffffffffffffffffffffffffffffffffffffffffffffff1916817bffffffffffffffffffffffffffffffffffffffffffffffffffffffff191614915050611e01565b600190505b949350505050565b60606040518060400160405280600781526020017f697066733a2f2f00000000000000000000000000000000000000000000000000815250905090565b6060611e5182611193565b611e90576040517f08c379a0000000000000000000000000000000000000000000000000000000008152600401611e8790612c58565b60405180910390fd5b6000611e9a611e09565b90506000815111611eba5760405180602001604052806000815250611ee5565b80611ec484611f6b565b604051602001611ed5929190612980565b6040516020818303038152906040525b915050919050565b611ef7838361161b565b611f046000848484611c72565b611f43576040517f08c379a0000000000000000000000000000000000000000000000000000000008152600401611f3a90612a78565b60405180910390fd5b505050565b6000808273ffffffffffffffffffffffffffffffffffffffff163b119050919050565b60606000821415611fb3576040518060400160405280600181526020017f30000000000000000000000000000000000000000000000000000000000000008152509050612113565b600082905060005b60008214611fe5578080611fce90612fce565b915050600a82611fde9190612e3e565b9150611fbb565b60008167ffffffffffffffff811115612027577f4e487b7100000000000000000000000000000000000000000000000000000000600052604160045260246000fd5b6040519080825280601f01601f1916602001820160405280156120595781602001600182028036833780820191505090505b5090505b6000851461210c576001826120729190612e6f565b9150600a856120819190613017565b603061208d9190612de8565b60f81b8183815181106120c9577f4e487b7100000000000000000000000000000000000000000000000000000000600052603260045260246000fd5b60200101907effffffffffffffffffffffffffffffffffffffffffffffffffffffffffffff1916908160001a905350600a856121059190612e3e565b945061205d565b8093505050505b919050565b82805461212490612f6b565b90600052602060002090601f016020900481019282612146576000855561218d565b82601f1061215f57805160ff191683800117855561218d565b8280016001018555821561218d579182015b8281111561218c578251825591602001919060010190612171565b5b50905061219a919061219e565b5090565b5b808211156121b757600081600090555060010161219f565b5090565b60006121ce6121c984612d38565b612d13565b9050828152602081018484840111156121e657600080fd5b6121f1848285612f29565b509392505050565b600061220c61220784612d69565b612d13565b90508281526020810184848401111561222457600080fd5b61222f848285612f29565b509392505050565b60008135905061224681613660565b92915050565b60008135905061225b81613677565b92915050565b6000813590506122708161368e565b92915050565b6000815190506122858161368e565b92915050565b600082601f83011261229c57600080fd5b81356122ac8482602086016121bb565b91505092915050565b600082601f8301126122c657600080fd5b81356122d68482602086016121f9565b91505092915050565b6000813590506122ee816136a5565b92915050565b60006020828403121561230657600080fd5b600061231484828501612237565b91505092915050565b6000806040838503121561233057600080fd5b600061233e85828601612237565b925050602061234f85828601612237565b9150509250929050565b60008060006060848603121561236e57600080fd5b600061237c86828701612237565b935050602061238d86828701612237565b925050604061239e868287016122df565b9150509250925092565b600080600080608085870312156123be57600080fd5b60006123cc87828801612237565b94505060206123dd87828801612237565b93505060406123ee878288016122df565b925050606085013567ffffffffffffffff81111561240b57600080fd5b6124178782880161228b565b91505092959194509250565b6000806040838503121561243657600080fd5b600061244485828601612237565b92505060206124558582860161224c565b9150509250929050565b6000806040838503121561247257600080fd5b600061248085828601612237565b925050602083013567ffffffffffffffff81111561249d57600080fd5b6124a9858286016122b5565b9150509250929050565b600080604083850312156124c657600080fd5b60006124d485828601612237565b92505060206124e5858286016122df565b9150509250929050565b60006020828403121561250157600080fd5b600061250f84828501612261565b91505092915050565b60006020828403121561252a57600080fd5b600061253884828501612276565b91505092915050565b60006020828403121561255357600080fd5b600082013567ffffffffffffffff81111561256d57600080fd5b612579848285016122b5565b91505092915050565b60006020828403121561259457600080fd5b60006125a2848285016122df565b91505092915050565b6125b481612eb5565b82525050565b6125c381612ea3565b82525050565b6125d281612ec7565b82525050565b60006125e382612d9a565b6125ed8185612db0565b93506125fd818560208601612f38565b61260681613104565b840191505092915050565b600061261c82612da5565b6126268185612dcc565b9350612636818560208601612f38565b61263f81613104565b840191505092915050565b600061265582612da5565b61265f8185612ddd565b935061266f818560208601612f38565b80840191505092915050565b6000612688603283612dcc565b915061269382613115565b604082019050919050565b60006126ab602683612dcc565b91506126b682613164565b604082019050919050565b60006126ce602583612dcc565b91506126d9826131b3565b604082019050919050565b60006126f1601c83612dcc565b91506126fc82613202565b602082019050919050565b6000612714602483612dcc565b915061271f8261322b565b604082019050919050565b6000612737601983612dcc565b91506127428261327a565b602082019050919050565b600061275a602c83612dcc565b9150612765826132a3565b604082019050919050565b600061277d603883612dcc565b9150612788826132f2565b604082019050919050565b60006127a0602a83612dcc565b91506127ab82613341565b604082019050919050565b60006127c3602983612dcc565b91506127ce82613390565b604082019050919050565b60006127e6602e83612dcc565b91506127f1826133df565b604082019050919050565b6000612809602083612dcc565b91506128148261342e565b602082019050919050565b600061282c603183612dcc565b915061283782613457565b604082019050919050565b600061284f602c83612dcc565b915061285a826134a6565b604082019050919050565b6000612872602083612dcc565b915061287d826134f5565b602082019050919050565b6000612895602f83612dcc565b91506128a08261351e565b604082019050919050565b60006128b8602183612dcc565b91506128c38261356d565b604082019050919050565b60006128db600083612dc1565b91506128e6826135bc565b600082019050919050565b60006128fe603183612dcc565b9150612909826135bf565b604082019050919050565b6000612921601383612dcc565b915061292c8261360e565b602082019050919050565b6000612944600f83612dcc565b915061294f82613637565b602082019050919050565b61296381612f1f565b82525050565b6000612975828461264a565b915081905092915050565b600061298c828561264a565b9150612998828461264a565b91508190509392505050565b60006129af826128ce565b9150819050919050565b60006020820190506129ce60008301846125ba565b92915050565b60006020820190506129e960008301846125ab565b92915050565b6000608082019050612a0460008301876125ba565b612a1160208301866125ba565b612a1e604083018561295a565b8181036060830152612a3081846125d8565b905095945050505050565b6000602082019050612a5060008301846125c9565b92915050565b60006020820190508181036000830152612a708184612611565b905092915050565b60006020820190508181036000830152612a918161267b565b9050919050565b60006020820190508181036000830152612ab18161269e565b9050919050565b60006020820190508181036000830152612ad1816126c1565b9050919050565b60006020820190508181036000830152612af1816126e4565b9050919050565b60006020820190508181036000830152612b1181612707565b9050919050565b60006020820190508181036000830152612b318161272a565b9050919050565b60006020820190508181036000830152612b518161274d565b9050919050565b60006020820190508181036000830152612b7181612770565b9050919050565b60006020820190508181036000830152612b9181612793565b9050919050565b60006020820190508181036000830152612bb1816127b6565b9050919050565b60006020820190508181036000830152612bd1816127d9565b9050919050565b60006020820190508181036000830152612bf1816127fc565b9050919050565b60006020820190508181036000830152612c118161281f565b9050919050565b60006020820190508181036000830152612c3181612842565b9050919050565b60006020820190508181036000830152612c5181612865565b9050919050565b60006020820190508181036000830152612c7181612888565b9050919050565b60006020820190508181036000830152612c91816128ab565b9050919050565b60006020820190508181036000830152612cb1816128f1565b9050919050565b60006020820190508181036000830152612cd181612914565b9050919050565b60006020820190508181036000830152612cf181612937565b9050919050565b6000602082019050612d0d600083018461295a565b92915050565b6000612d1d612d2e565b9050612d298282612f9d565b919050565b6000604051905090565b600067ffffffffffffffff821115612d5357612d526130d5565b5b612d5c82613104565b9050602081019050919050565b600067ffffffffffffffff821115612d8457612d836130d5565b5b612d8d82613104565b9050602081019050919050565b600081519050919050565b600081519050919050565b600082825260208201905092915050565b600081905092915050565b600082825260208201905092915050565b600081905092915050565b6000612df382612f1f565b9150612dfe83612f1f565b9250827fffffffffffffffffffffffffffffffffffffffffffffffffffffffffffffffff03821115612e3357612e32613048565b5b828201905092915050565b6000612e4982612f1f565b9150612e5483612f1f565b925082612e6457612e63613077565b5b828204905092915050565b6000612e7a82612f1f565b9150612e8583612f1f565b925082821015612e9857612e97613048565b5b828203905092915050565b6000612eae82612eff565b9050919050565b6000612ec082612eff565b9050919050565b60008115159050919050565b60007fffffffff0000000000000000000000000000000000000000000000000000000082169050919050565b600073ffffffffffffffffffffffffffffffffffffffff82169050919050565b6000819050919050565b82818337600083830152505050565b60005b83811015612f56578082015181840152602081019050612f3b565b83811115612f65576000848401525b50505050565b60006002820490506001821680612f8357607f821691505b60208210811415612f9757612f966130a6565b5b50919050565b612fa682613104565b810181811067ffffffffffffffff82111715612fc557612fc46130d5565b5b80604052505050565b6000612fd982612f1f565b91507fffffffffffffffffffffffffffffffffffffffffffffffffffffffffffffffff82141561300c5761300b613048565b5b600182019050919050565b600061302282612f1f565b915061302d83612f1f565b92508261303d5761303c613077565b5b828206905092915050565b7f4e487b7100000000000000000000000000000000000000000000000000000000600052601160045260246000fd5b7f4e487b7100000000000000000000000000000000000000000000000000000000600052601260045260246000fd5b7f4e487b7100000000000000000000000000000000000000000000000000000000600052602260045260246000fd5b7f4e487b7100000000000000000000000000000000000000000000000000000000600052604160045260246000fd5b6000601f19601f8301169050919050565b7f4552433732313a207472616e7366657220746f206e6f6e20455243373231526560008201527f63656976657220696d706c656d656e7465720000000000000000000000000000602082015250565b7f4f776e61626c653a206e6577206f776e657220697320746865207a65726f206160008201527f6464726573730000000000000000000000000000000000000000000000000000602082015250565b7f4552433732313a207472616e736665722066726f6d20696e636f72726563742060008201527f6f776e6572000000000000000000000000000000000000000000000000000000602082015250565b7f4552433732313a20746f6b656e20616c7265616479206d696e74656400000000600082015250565b7f4552433732313a207472616e7366657220746f20746865207a65726f2061646460008201527f7265737300000000000000000000000000000000000000000000000000000000602082015250565b7f4552433732313a20617070726f766520746f2063616c6c657200000000000000600082015250565b7f4552433732313a206f70657261746f7220717565727920666f72206e6f6e657860008201527f697374656e7420746f6b656e0000000000000000000000000000000000000000602082015250565b7f4552433732313a20617070726f76652063616c6c6572206973206e6f74206f7760008201527f6e6572206e6f7220617070726f76656420666f7220616c6c0000000000000000602082015250565b7f4552433732313a2062616c616e636520717565727920666f7220746865207a6560008201527f726f206164647265737300000000000000000000000000000000000000000000602082015250565b7f4552433732313a206f776e657220717565727920666f72206e6f6e657869737460008201527f656e7420746f6b656e0000000000000000000000000000000000000000000000602082015250565b7f45524337323155524953746f726167653a2055524920736574206f66206e6f6e60008201527f6578697374656e7420746f6b656e000000000000000000000000000000000000602082015250565b7f4552433732313a206d696e7420746f20746865207a65726f2061646472657373600082015250565b7f45524337323155524953746f726167653a2055524920717565727920666f722060008201527f6e6f6e6578697374656e7420746f6b656e000000000000000000000000000000602082015250565b7f4552433732313a20617070726f76656420717565727920666f72206e6f6e657860008201527f697374656e7420746f6b656e0000000000000000000000000000000000000000602082015250565b7f4f776e61626c653a2063616c6c6572206973206e6f7420746865206f776e6572600082015250565b7f4552433732314d657461646174613a2055524920717565727920666f72206e6f60008201527f6e6578697374656e7420746f6b656e0000000000000000000000000000000000602082015250565b7f4552433732313a20617070726f76616c20746f2063757272656e74206f776e6560008201527f7200000000000000000000000000000000000000000000000000000000000000602082015250565b50565b7f4552433732313a207472616e736665722063616c6c6572206973206e6f74206f60008201527f776e6572206e6f7220617070726f766564000000000000000000000000000000602082015250565b7f4e465420616c7265616479206d696e7465642100000000000000000000000000600082015250565b7f4e65656420746f20706179207570210000000000000000000000000000000000600082015250565b61366981612ea3565b811461367457600080fd5b50565b61368081612ec7565b811461368b57600080fd5b50565b61369781612ed3565b81146136a257600080fd5b50565b6136ae81612f1f565b81146136b957600080fd5b5056fea2646970667358221220306ac22e0595cfde8380ec1d84c78cd55814d4844365135d3e5e6fb03a1d0af064736f6c63430008040033",
  "linkReferences": {},
  "deployedLinkReferences": {}
}